{
    "contract_name": "Calculator",
    "sourcePath": "/home/danyal/burrow/contracts/Calculator.sol",
    "source": "pragma solidity ^0.4.18;\n\ncontract Calculator {\n\n    function test() public pure returns(string) {\n    \treturn 'hello';\n    }\n\n    function Sum(int x1, int x2) public pure returns(int) {\n\n        return (x1 + x2);\n    }\n\n    function Mul(int x1, int x2) public pure returns(int) {\n\n        return (x1 * x2);\n    }\n\n    function Div(int x1, int x2) public pure returns(int) {\n\n        return (x1 / x2);\n    }\n    function Sub(int x1, int x2) public pure returns(int) {\n\n        return (x1 - x2);\n    }\n\n}\n",
    "abi": [
        {
            "constant": true,
            "inputs": [],
            "name": "test",
            "outputs": [
                {
                    "name": "",
                    "type": "string"
                }
            ],
            "payable": false,
            "stateMutability": "pure",
            "type": "function"
        },
        {
            "constant": true,
            "inputs": [
                {
                    "name": "x1",
                    "type": "int256"
                },
                {
                    "name": "x2",
                    "type": "int256"
                }
            ],
            "name": "Sum",
            "outputs": [
                {
                    "name": "",
                    "type": "int256"
                }
            ],
            "payable": false,
            "stateMutability": "pure",
            "type": "function"
        },
        {
            "constant": true,
            "inputs": [
                {
                    "name": "x1",
                    "type": "int256"
                },
                {
                    "name": "x2",
                    "type": "int256"
                }
            ],
            "name": "Mul",
            "outputs": [
                {
                    "name": "",
                    "type": "int256"
                }
            ],
            "payable": false,
            "stateMutability": "pure",
            "type": "function"
        },
        {
            "constant": true,
            "inputs": [
                {
                    "name": "x1",
                    "type": "int256"
                },
                {
                    "name": "x2",
                    "type": "int256"
                }
            ],
            "name": "Div",
            "outputs": [
                {
                    "name": "",
                    "type": "int256"
                }
            ],
            "payable": false,
            "stateMutability": "pure",
            "type": "function"
        },
        {
            "constant": true,
            "inputs": [
                {
                    "name": "x1",
                    "type": "int256"
                },
                {
                    "name": "x2",
                    "type": "int256"
                }
            ],
            "name": "Sub",
            "outputs": [
                {
                    "name": "",
                    "type": "int256"
                }
            ],
            "payable": false,
            "stateMutability": "pure",
            "type": "function"
        }
    ],
    "bytecode": "0x608060405234801561001057600080fd5b506102d4806100206000396000f30060806040526004361061006d576000357c0100000000000000000000000000000000000000000000000000000000900463ffffffff168063166dec531461007257806375aac69e146100bd578063eb638f1214610108578063f8a8fd6d14610153578063fa94904d146101e3575b600080fd5b34801561007e57600080fd5b506100a7600480360381019080803590602001909291908035906020019092919050505061022e565b6040518082815260200191505060405180910390f35b3480156100c957600080fd5b506100f2600480360381019080803590602001909291908035906020019092919050505061023b565b6040518082815260200191505060405180910390f35b34801561011457600080fd5b5061013d6004803603810190808035906020019092919080359060200190929190505050610251565b6040518082815260200191505060405180910390f35b34801561015f57600080fd5b5061016861025e565b6040518080602001828103825283818151815260200191508051906020019080838360005b838110156101a857808201518184015260208101905061018d565b50505050905090810190601f1680156101d55780820380516001836020036101000a031916815260200191505b509250505060405180910390f35b3480156101ef57600080fd5b50610218600480360381019080803590602001909291908035906020019092919050505061029b565b6040518082815260200191505060405180910390f35b6000818303905092915050565b6000818381151561024857fe5b05905092915050565b6000818301905092915050565b60606040805190810160405280600581526020017f68656c6c6f000000000000000000000000000000000000000000000000000000815250905090565b60008183029050929150505600a165627a7a72305820052d7c1c975b4effaf27e809909190c0132a7d73575d6b03ee8b061c1edea8080029",
    "unlinked_binary": "0x608060405234801561001057600080fd5b506102d4806100206000396000f30060806040526004361061006d576000357c0100000000000000000000000000000000000000000000000000000000900463ffffffff168063166dec531461007257806375aac69e146100bd578063eb638f1214610108578063f8a8fd6d14610153578063fa94904d146101e3575b600080fd5b34801561007e57600080fd5b506100a7600480360381019080803590602001909291908035906020019092919050505061022e565b6040518082815260200191505060405180910390f35b3480156100c957600080fd5b506100f2600480360381019080803590602001909291908035906020019092919050505061023b565b6040518082815260200191505060405180910390f35b34801561011457600080fd5b5061013d6004803603810190808035906020019092919080359060200190929190505050610251565b6040518082815260200191505060405180910390f35b34801561015f57600080fd5b5061016861025e565b6040518080602001828103825283818151815260200191508051906020019080838360005b838110156101a857808201518184015260208101905061018d565b50505050905090810190601f1680156101d55780820380516001836020036101000a031916815260200191505b509250505060405180910390f35b3480156101ef57600080fd5b50610218600480360381019080803590602001909291908035906020019092919050505061029b565b6040518082815260200191505060405180910390f35b6000818303905092915050565b6000818381151561024857fe5b05905092915050565b6000818301905092915050565b60606040805190810160405280600581526020017f68656c6c6f000000000000000000000000000000000000000000000000000000815250905090565b60008183029050929150505600a165627a7a72305820052d7c1c975b4effaf27e809909190c0132a7d73575d6b03ee8b061c1edea8080029",
    "compiler": {
        "name": "solc",
        "version": "0.4.23+commit.124ca40d.Emscripten.clang"
    }
}